8=FIX.4.2|9=99|35=A|34=1|49=MY-INITIATOR-CLIENT1|52=20200416-16:37:28.978|56=MY-ACCEPTOR-SERVICE|98=0|108=5|141=Y|10=028|
8=FIX.4.2|9=99|35=A|34=1|49=MY-ACCEPTOR-SERVICE|52=20200416-16:37:29.067|56=MY-INITIATOR-CLIENT1|98=0|108=5|141=Y|10=018|
8=FIX.4.2|9=82|35=0|34=2|49=MY-INITIATOR-CLIENT1|52=20200416-16:37:34.970|56=MY-ACCEPTOR-SERVICE|10=225|
8=FIX.4.2|9=82|35=0|34=2|49=MY-ACCEPTOR-SERVICE|52=20200416-16:37:34.973|56=MY-INITIATOR-CLIENT1|10=228|
8=FIX.4.2|9=137|35=D|34=3|49=MY-INITIATOR-CLIENT1|52=20200416-16:37:38.056|56=MY-ACCEPTOR-SERVICE|11=456|21=3|40=1|54=1|55=AJCB|60=20200416-16:37:38.055|10=116|
8=FIX.4.2|9=154|35=8|34=3|49=MY-ACCEPTOR-SERVICE|52=20200416-16:37:38.091|56=MY-INITIATOR-CLIENT1|6=0|11=456|14=0|17=789|20=0|31=0|32=0|37=133456|38=56|39=0|54=1|55=AJCB|10=237|
8=FIX.4.2|9=82|35=0|34=4|49=MY-INITIATOR-CLIENT1|52=20200416-16:37:43.969|56=MY-ACCEPTOR-SERVICE|10=235|
8=FIX.4.2|9=82|35=0|34=4|49=MY-ACCEPTOR-SERVICE|52=20200416-16:37:43.976|56=MY-INITIATOR-CLIENT1|10=233|
8=FIX.4.2|9=137|35=D|34=5|49=MY-INITIATOR-CLIENT1|52=20200416-16:37:48.057|56=MY-ACCEPTOR-SERVICE|11=456|21=3|40=1|54=1|55=AJCB|60=20200416-16:37:48.057|10=123|
8=FIX.4.2|9=154|35=8|34=5|49=MY-ACCEPTOR-SERVICE|52=20200416-16:37:48.064|56=MY-INITIATOR-CLIENT1|6=0|11=456|14=0|17=789|20=0|31=0|32=0|37=133456|38=56|39=0|54=1|55=AJCB|10=240|
