8=FIX.4.2|9=99|35=A|34=1|49=MY-INITIATOR-CLIENT1|52=20200416-16:37:28.978|56=MY-ACCEPTOR-SERVICE|98=0|108=5|141=Y|10=028|8=FIX.4.2|9=82|35=0|34=2|49=MY-INITIATOR-CLIENT1|52=20200416-16:37:34.970|56=MY-ACCEPTOR-SERVICE|10=225|8=FIX.4.2|9=137|35=D|34=3|49=MY-INITIATOR-CLIENT1|52=20200416-16:37:38.056|56=MY-ACCEPTOR-SERVICE|11=456|21=3|40=1|54=1|55=AJCB|60=20200416-16:37:38.055|10=116|8=FIX.4.2|9=82|35=0|34=4|49=MY-INITIATOR-CLIENT1|52=20200416-16:37:43.969|56=MY-ACCEPTOR-SERVICE|10=235|8=FIX.4.2|9=137|35=D|34=5|49=MY-INITIATOR-CLIENT1|52=20200416-16:37:48.057|56=MY-ACCEPTOR-SERVICE|11=456|21=3|40=1|54=1|55=AJCB|60=20200416-16:37:48.057|10=123|